{
  "transactions": [
    {
      "hash": "0xef7f843e10fe0bd268449e4a2db85e52e751ca3947fea7ede496ff686dda0cfd",
      "transactionType": "CALL",
      "contractName": null,
      "contractAddress": "0x001a6a16d2fc45248e00351314bce898b7d8578f",
      "function": "constitute(address[],(address,uint64)[])",
      "arguments": [
        "[0x7Dcbd2DAc6166F77E8e7d4b397EB603f4680794C, 0x420bf9045BFD5449eB12E068AEf31251BEb576b1, 0x3216EB8D8fF087536835600a7e0B32687744Ef65, 0xbb45079e74399e7238AAF63C764C3CeE7D77712F, 0x0Ea769CD03D6159088F14D3b23bF50702b5d4363, 0xa2c0C9d9762c51DA258d008C92575A158121c87d, 0xfb7291B8FbA99C9FC29E95797914777562983D71, 0x8383547475d9ade41cE23D9Aa4D81E85D1eAdeBD, 0xBfa0747E3AC40c628352ff65a1254cC08f1957Aa, 0x71504Ced3199f8a0B32EaBf4C274D1ddD87Ecc4d, 0x0735199AeDba32A4E1BaF963A3C5C1D2930BdfFd, 0x57C9a89c8550fAf69Ab86a9A4e5c96BcBC270af9]",
        "[(0x328735d26e5Ada93610F0006c32abE2278c46211, 1)]"
      ],
      "transaction": {
        "from": "0x328735d26e5ada93610f0006c32abe2278c46211",
        "to": "0x001a6a16d2fc45248e00351314bce898b7d8578f",
        "gas": "0x998c0",
        "value": "0x0",
        "input": "0xdd5e599a000000000000000000000000000000000000000000000000000000000000004000000000000000000000000000000000000000000000000000000000000001e0000000000000000000000000000000000000000000000000000000000000000c0000000000000000000000007dcbd2dac6166f77e8e7d4b397eb603f4680794c000000000000000000000000420bf9045bfd5449eb12e068aef31251beb576b10000000000000000000000003216eb8d8ff087536835600a7e0b32687744ef65000000000000000000000000bb45079e74399e7238aaf63c764c3cee7d77712f0000000000000000000000000ea769cd03d6159088f14d3b23bf50702b5d4363000000000000000000000000a2c0c9d9762c51da258d008c92575a158121c87d000000000000000000000000fb7291b8fba99c9fc29e95797914777562983d710000000000000000000000008383547475d9ade41ce23d9aa4d81e85d1eadebd000000000000000000000000bfa0747e3ac40c628352ff65a1254cc08f1957aa00000000000000000000000071504ced3199f8a0b32eabf4c274d1ddd87ecc4d0000000000000000000000000735199aedba32a4e1baf963a3c5c1d2930bdffd00000000000000000000000057c9a89c8550faf69ab86a9a4e5c96bcbc270af90000000000000000000000000000000000000000000000000000000000000001000000000000000000000000328735d26e5ada93610f0006c32abe2278c462110000000000000000000000000000000000000000000000000000000000000001",
        "nonce": "0xdf",
        "chainId": "0x66eee"
      },
      "additionalContracts": [],
      "isFixedGasLimit": false
    }
  ],
  "receipts": [
    {
      "status": "0x1",
      "cumulativeGasUsed": "0x74cea",
      "logs": [
        {
          "address": "0x001a6a16d2fc45248e00351314bce898b7d8578f",
          "topics": [
            "0x46c7dcbf3a00c84e08d7545c624c4660c0c6f64f421aa6f3f2f50ba7af392a17",
            "0x0000000000000000000000007dcbd2dac6166f77e8e7d4b397eb603f4680794c",
            "0x0000000000000000000000000000000000000000000000000000000000000001",
            "0x0000000000000000000000000000000000000000000000000000000000000001"
          ],
          "data": "0x",
          "blockHash": "0xf5b68aecd3165990cd275be118702d1fc6d1481e142ccf4ddd536281ba3b43a6",
          "blockNumber": "0x56a0d0a",
          "transactionHash": "0xef7f843e10fe0bd268449e4a2db85e52e751ca3947fea7ede496ff686dda0cfd",
          "transactionIndex": "0x1",
          "logIndex": "0x0",
          "removed": false
        },
        {
          "address": "0x001a6a16d2fc45248e00351314bce898b7d8578f",
          "topics": [
            "0x46c7dcbf3a00c84e08d7545c624c4660c0c6f64f421aa6f3f2f50ba7af392a17",
            "0x000000000000000000000000420bf9045bfd5449eb12e068aef31251beb576b1",
            "0x0000000000000000000000000000000000000000000000000000000000000001",
            "0x0000000000000000000000000000000000000000000000000000000000000001"
          ],
          "data": "0x",
          "blockHash": "0xf5b68aecd3165990cd275be118702d1fc6d1481e142ccf4ddd536281ba3b43a6",
          "blockNumber": "0x56a0d0a",
          "transactionHash": "0xef7f843e10fe0bd268449e4a2db85e52e751ca3947fea7ede496ff686dda0cfd",
          "transactionIndex": "0x1",
          "logIndex": "0x1",
          "removed": false
        },
        {
          "address": "0x001a6a16d2fc45248e00351314bce898b7d8578f",
          "topics": [
            "0x46c7dcbf3a00c84e08d7545c624c4660c0c6f64f421aa6f3f2f50ba7af392a17",
            "0x0000000000000000000000003216eb8d8ff087536835600a7e0b32687744ef65",
            "0x0000000000000000000000000000000000000000000000000000000000000001",
            "0x0000000000000000000000000000000000000000000000000000000000000001"
          ],
          "data": "0x",
          "blockHash": "0xf5b68aecd3165990cd275be118702d1fc6d1481e142ccf4ddd536281ba3b43a6",
          "blockNumber": "0x56a0d0a",
          "transactionHash": "0xef7f843e10fe0bd268449e4a2db85e52e751ca3947fea7ede496ff686dda0cfd",
          "transactionIndex": "0x1",
          "logIndex": "0x2",
          "removed": false
        },
        {
          "address": "0x001a6a16d2fc45248e00351314bce898b7d8578f",
          "topics": [
            "0x46c7dcbf3a00c84e08d7545c624c4660c0c6f64f421aa6f3f2f50ba7af392a17",
            "0x000000000000000000000000bb45079e74399e7238aaf63c764c3cee7d77712f",
            "0x0000000000000000000000000000000000000000000000000000000000000001",
            "0x0000000000000000000000000000000000000000000000000000000000000001"
          ],
          "data": "0x",
          "blockHash": "0xf5b68aecd3165990cd275be118702d1fc6d1481e142ccf4ddd536281ba3b43a6",
          "blockNumber": "0x56a0d0a",
          "transactionHash": "0xef7f843e10fe0bd268449e4a2db85e52e751ca3947fea7ede496ff686dda0cfd",
          "transactionIndex": "0x1",
          "logIndex": "0x3",
          "removed": false
        },
        {
          "address": "0x001a6a16d2fc45248e00351314bce898b7d8578f",
          "topics": [
            "0x46c7dcbf3a00c84e08d7545c624c4660c0c6f64f421aa6f3f2f50ba7af392a17",
            "0x0000000000000000000000000ea769cd03d6159088f14d3b23bf50702b5d4363",
            "0x0000000000000000000000000000000000000000000000000000000000000001",
            "0x0000000000000000000000000000000000000000000000000000000000000001"
          ],
          "data": "0x",
          "blockHash": "0xf5b68aecd3165990cd275be118702d1fc6d1481e142ccf4ddd536281ba3b43a6",
          "blockNumber": "0x56a0d0a",
          "transactionHash": "0xef7f843e10fe0bd268449e4a2db85e52e751ca3947fea7ede496ff686dda0cfd",
          "transactionIndex": "0x1",
          "logIndex": "0x4",
          "removed": false
        },
        {
          "address": "0x001a6a16d2fc45248e00351314bce898b7d8578f",
          "topics": [
            "0x46c7dcbf3a00c84e08d7545c624c4660c0c6f64f421aa6f3f2f50ba7af392a17",
            "0x000000000000000000000000a2c0c9d9762c51da258d008c92575a158121c87d",
            "0x0000000000000000000000000000000000000000000000000000000000000001",
            "0x0000000000000000000000000000000000000000000000000000000000000001"
          ],
          "data": "0x",
          "blockHash": "0xf5b68aecd3165990cd275be118702d1fc6d1481e142ccf4ddd536281ba3b43a6",
          "blockNumber": "0x56a0d0a",
          "transactionHash": "0xef7f843e10fe0bd268449e4a2db85e52e751ca3947fea7ede496ff686dda0cfd",
          "transactionIndex": "0x1",
          "logIndex": "0x5",
          "removed": false
        },
        {
          "address": "0x001a6a16d2fc45248e00351314bce898b7d8578f",
          "topics": [
            "0x46c7dcbf3a00c84e08d7545c624c4660c0c6f64f421aa6f3f2f50ba7af392a17",
            "0x000000000000000000000000fb7291b8fba99c9fc29e95797914777562983d71",
            "0x0000000000000000000000000000000000000000000000000000000000000001",
            "0x0000000000000000000000000000000000000000000000000000000000000001"
          ],
          "data": "0x",
          "blockHash": "0xf5b68aecd3165990cd275be118702d1fc6d1481e142ccf4ddd536281ba3b43a6",
          "blockNumber": "0x56a0d0a",
          "transactionHash": "0xef7f843e10fe0bd268449e4a2db85e52e751ca3947fea7ede496ff686dda0cfd",
          "transactionIndex": "0x1",
          "logIndex": "0x6",
          "removed": false
        },
        {
          "address": "0x001a6a16d2fc45248e00351314bce898b7d8578f",
          "topics": [
            "0x46c7dcbf3a00c84e08d7545c624c4660c0c6f64f421aa6f3f2f50ba7af392a17",
            "0x0000000000000000000000008383547475d9ade41ce23d9aa4d81e85d1eadebd",
            "0x0000000000000000000000000000000000000000000000000000000000000001",
            "0x0000000000000000000000000000000000000000000000000000000000000001"
          ],
          "data": "0x",
          "blockHash": "0xf5b68aecd3165990cd275be118702d1fc6d1481e142ccf4ddd536281ba3b43a6",
          "blockNumber": "0x56a0d0a",
          "transactionHash": "0xef7f843e10fe0bd268449e4a2db85e52e751ca3947fea7ede496ff686dda0cfd",
          "transactionIndex": "0x1",
          "logIndex": "0x7",
          "removed": false
        },
        {
          "address": "0x001a6a16d2fc45248e00351314bce898b7d8578f",
          "topics": [
            "0x46c7dcbf3a00c84e08d7545c624c4660c0c6f64f421aa6f3f2f50ba7af392a17",
            "0x000000000000000000000000bfa0747e3ac40c628352ff65a1254cc08f1957aa",
            "0x0000000000000000000000000000000000000000000000000000000000000001",
            "0x0000000000000000000000000000000000000000000000000000000000000001"
          ],
          "data": "0x",
          "blockHash": "0xf5b68aecd3165990cd275be118702d1fc6d1481e142ccf4ddd536281ba3b43a6",
          "blockNumber": "0x56a0d0a",
          "transactionHash": "0xef7f843e10fe0bd268449e4a2db85e52e751ca3947fea7ede496ff686dda0cfd",
          "transactionIndex": "0x1",
          "logIndex": "0x8",
          "removed": false
        },
        {
          "address": "0x001a6a16d2fc45248e00351314bce898b7d8578f",
          "topics": [
            "0x46c7dcbf3a00c84e08d7545c624c4660c0c6f64f421aa6f3f2f50ba7af392a17",
            "0x00000000000000000000000071504ced3199f8a0b32eabf4c274d1ddd87ecc4d",
            "0x0000000000000000000000000000000000000000000000000000000000000001",
            "0x0000000000000000000000000000000000000000000000000000000000000001"
          ],
          "data": "0x",
          "blockHash": "0xf5b68aecd3165990cd275be118702d1fc6d1481e142ccf4ddd536281ba3b43a6",
          "blockNumber": "0x56a0d0a",
          "transactionHash": "0xef7f843e10fe0bd268449e4a2db85e52e751ca3947fea7ede496ff686dda0cfd",
          "transactionIndex": "0x1",
          "logIndex": "0x9",
          "removed": false
        },
        {
          "address": "0x001a6a16d2fc45248e00351314bce898b7d8578f",
          "topics": [
            "0x46c7dcbf3a00c84e08d7545c624c4660c0c6f64f421aa6f3f2f50ba7af392a17",
            "0x0000000000000000000000000735199aedba32a4e1baf963a3c5c1d2930bdffd",
            "0x0000000000000000000000000000000000000000000000000000000000000001",
            "0x0000000000000000000000000000000000000000000000000000000000000001"
          ],
          "data": "0x",
          "blockHash": "0xf5b68aecd3165990cd275be118702d1fc6d1481e142ccf4ddd536281ba3b43a6",
          "blockNumber": "0x56a0d0a",
          "transactionHash": "0xef7f843e10fe0bd268449e4a2db85e52e751ca3947fea7ede496ff686dda0cfd",
          "transactionIndex": "0x1",
          "logIndex": "0xa",
          "removed": false
        },
        {
          "address": "0x001a6a16d2fc45248e00351314bce898b7d8578f",
          "topics": [
            "0x46c7dcbf3a00c84e08d7545c624c4660c0c6f64f421aa6f3f2f50ba7af392a17",
            "0x00000000000000000000000057c9a89c8550faf69ab86a9a4e5c96bcbc270af9",
            "0x0000000000000000000000000000000000000000000000000000000000000001",
            "0x0000000000000000000000000000000000000000000000000000000000000001"
          ],
          "data": "0x",
          "blockHash": "0xf5b68aecd3165990cd275be118702d1fc6d1481e142ccf4ddd536281ba3b43a6",
          "blockNumber": "0x56a0d0a",
          "transactionHash": "0xef7f843e10fe0bd268449e4a2db85e52e751ca3947fea7ede496ff686dda0cfd",
          "transactionIndex": "0x1",
          "logIndex": "0xb",
          "removed": false
        },
        {
          "address": "0x001a6a16d2fc45248e00351314bce898b7d8578f",
          "topics": [
            "0x6627f156f083090f37b8b458301c9057e453e08953ee04a5738e3233443997ea",
            "0x0000000000000000000000000000000000000000000000000000000000000001",
            "0x000000000000000000000000328735d26e5ada93610f0006c32abe2278c46211",
            "0x0000000000000000000000000000000000000000000000000000000000000001"
          ],
          "data": "0x",
          "blockHash": "0xf5b68aecd3165990cd275be118702d1fc6d1481e142ccf4ddd536281ba3b43a6",
          "blockNumber": "0x56a0d0a",
          "transactionHash": "0xef7f843e10fe0bd268449e4a2db85e52e751ca3947fea7ede496ff686dda0cfd",
          "transactionIndex": "0x1",
          "logIndex": "0xc",
          "removed": false
        }
      ],
      "logsBloom": "0x00000000020201000000008000000200000000100000000000000000000000000000000000000000000000000000000000010000400000000000400000040000000000000010100000000000000000000640004000840801000000000000000001000000800000000001000000400200000000000000020000000000000000200002000000000000000000000000000000000000000000020000000000000000000000000000000000000000000000000000000008004000000000000000010000000000000004802000001000028004008800020000000140000020000040000002000000000000000000000000000000000008008100000000000004000000",
      "type": "0x2",
      "transactionHash": "0xef7f843e10fe0bd268449e4a2db85e52e751ca3947fea7ede496ff686dda0cfd",
      "transactionIndex": "0x1",
      "blockHash": "0xf5b68aecd3165990cd275be118702d1fc6d1481e142ccf4ddd536281ba3b43a6",
      "blockNumber": "0x56a0d0a",
      "gasUsed": "0x74cea",
      "effectiveGasPrice": "0x5f5e100",
      "from": "0x328735d26e5ada93610f0006c32abe2278c46211",
      "to": "0x001a6a16d2fc45248e00351314bce898b7d8578f",
      "contractAddress": null,
      "gasUsedForL1": "0x91d",
      "l1BlockNumber": "0x69ab3b"
    }
  ],
  "libraries": [],
  "pending": [],
  "returns": {},
  "timestamp": 1729633136,
  "chain": 421614,
  "commit": "b448895"
}