{
  "transactions": [
    {
      "hash": "0x10e7d6f7a8a419bf48fa56214c41ff2165f8ac6b304aa55301685b07a408fdfb",
      "transactionType": "CALL",
      "contractName": null,
      "contractAddress": "0xbe1e70f11cab86bd0f662d6d701264855529f8e8",
      "function": "constitute(address[],(address,uint64)[])",
      "arguments": [
        "[0xAdf5ca4cb0D2cDD31BEf6118b857784C3F708157, 0xBa021505Df3a98641A00aF6dfC700A8D0Ec8DC77, 0x569F223Bd2b5Ebdd990Fb71dB480f1f09CE290CD, 0x7201A43e45152D4Bb2210990184fdD2ad9d99169, 0x6F5202Cc0B36287513f3197FDd515FE7d6befBC4, 0x37FD9cA01307708E29812621991eA7DF04e3E539, 0xA9541826028BC7D4536EE4f016eA20086b89462e, 0x0f0D9F12143eBCa798E3873CE5350eE71AcDC03b, 0xBCAEa2Ae164bAd93d7C4736099F8eed6A50d3cd5, 0x3f4f6216B1f2beBF15DD11dFb7c87EE540BA371b, 0x50C156C5DCD37DA12523463194D337199ADbb025, 0x737Ca64B1cd1Cf69872ce9feB6b169524bb9cdC1]",
        "[(0x328735d26e5Ada93610F0006c32abE2278c46211, 2)]"
      ],
      "transaction": {
        "from": "0x328735d26e5ada93610f0006c32abe2278c46211",
        "to": "0xbe1e70f11cab86bd0f662d6d701264855529f8e8",
        "gas": "0x95913",
        "value": "0x0",
        "input": "0xdd5e599a000000000000000000000000000000000000000000000000000000000000004000000000000000000000000000000000000000000000000000000000000001e0000000000000000000000000000000000000000000000000000000000000000c000000000000000000000000adf5ca4cb0d2cdd31bef6118b857784c3f708157000000000000000000000000ba021505df3a98641a00af6dfc700a8d0ec8dc77000000000000000000000000569f223bd2b5ebdd990fb71db480f1f09ce290cd0000000000000000000000007201a43e45152d4bb2210990184fdd2ad9d991690000000000000000000000006f5202cc0b36287513f3197fdd515fe7d6befbc400000000000000000000000037fd9ca01307708e29812621991ea7df04e3e539000000000000000000000000a9541826028bc7d4536ee4f016ea20086b89462e0000000000000000000000000f0d9f12143ebca798e3873ce5350ee71acdc03b000000000000000000000000bcaea2ae164bad93d7c4736099f8eed6a50d3cd50000000000000000000000003f4f6216b1f2bebf15dd11dfb7c87ee540ba371b00000000000000000000000050c156c5dcd37da12523463194d337199adbb025000000000000000000000000737ca64b1cd1cf69872ce9feb6b169524bb9cdc10000000000000000000000000000000000000000000000000000000000000001000000000000000000000000328735d26e5ada93610f0006c32abe2278c462110000000000000000000000000000000000000000000000000000000000000002",
        "nonce": "0xc1",
        "chainId": "0x66eee"
      },
      "additionalContracts": [],
      "isFixedGasLimit": false
    }
  ],
  "receipts": [
    {
      "status": "0x1",
      "cumulativeGasUsed": "0x718f7",
      "logs": [
        {
          "address": "0xbe1e70f11cab86bd0f662d6d701264855529f8e8",
          "topics": [
            "0x46c7dcbf3a00c84e08d7545c624c4660c0c6f64f421aa6f3f2f50ba7af392a17",
            "0x000000000000000000000000adf5ca4cb0d2cdd31bef6118b857784c3f708157",
            "0x0000000000000000000000000000000000000000000000000000000000000001",
            "0x0000000000000000000000000000000000000000000000000000000000000001"
          ],
          "data": "0x",
          "blockHash": "0x79b688c062dc735b28c10767ab414db2f294bae5211453ea60b20cabd54f2b66",
          "blockNumber": "0x569f5bb",
          "transactionHash": "0x10e7d6f7a8a419bf48fa56214c41ff2165f8ac6b304aa55301685b07a408fdfb",
          "transactionIndex": "0x1",
          "logIndex": "0x0",
          "removed": false
        },
        {
          "address": "0xbe1e70f11cab86bd0f662d6d701264855529f8e8",
          "topics": [
            "0x46c7dcbf3a00c84e08d7545c624c4660c0c6f64f421aa6f3f2f50ba7af392a17",
            "0x000000000000000000000000ba021505df3a98641a00af6dfc700a8d0ec8dc77",
            "0x0000000000000000000000000000000000000000000000000000000000000001",
            "0x0000000000000000000000000000000000000000000000000000000000000001"
          ],
          "data": "0x",
          "blockHash": "0x79b688c062dc735b28c10767ab414db2f294bae5211453ea60b20cabd54f2b66",
          "blockNumber": "0x569f5bb",
          "transactionHash": "0x10e7d6f7a8a419bf48fa56214c41ff2165f8ac6b304aa55301685b07a408fdfb",
          "transactionIndex": "0x1",
          "logIndex": "0x1",
          "removed": false
        },
        {
          "address": "0xbe1e70f11cab86bd0f662d6d701264855529f8e8",
          "topics": [
            "0x46c7dcbf3a00c84e08d7545c624c4660c0c6f64f421aa6f3f2f50ba7af392a17",
            "0x000000000000000000000000569f223bd2b5ebdd990fb71db480f1f09ce290cd",
            "0x0000000000000000000000000000000000000000000000000000000000000001",
            "0x0000000000000000000000000000000000000000000000000000000000000001"
          ],
          "data": "0x",
          "blockHash": "0x79b688c062dc735b28c10767ab414db2f294bae5211453ea60b20cabd54f2b66",
          "blockNumber": "0x569f5bb",
          "transactionHash": "0x10e7d6f7a8a419bf48fa56214c41ff2165f8ac6b304aa55301685b07a408fdfb",
          "transactionIndex": "0x1",
          "logIndex": "0x2",
          "removed": false
        },
        {
          "address": "0xbe1e70f11cab86bd0f662d6d701264855529f8e8",
          "topics": [
            "0x46c7dcbf3a00c84e08d7545c624c4660c0c6f64f421aa6f3f2f50ba7af392a17",
            "0x0000000000000000000000007201a43e45152d4bb2210990184fdd2ad9d99169",
            "0x0000000000000000000000000000000000000000000000000000000000000001",
            "0x0000000000000000000000000000000000000000000000000000000000000001"
          ],
          "data": "0x",
          "blockHash": "0x79b688c062dc735b28c10767ab414db2f294bae5211453ea60b20cabd54f2b66",
          "blockNumber": "0x569f5bb",
          "transactionHash": "0x10e7d6f7a8a419bf48fa56214c41ff2165f8ac6b304aa55301685b07a408fdfb",
          "transactionIndex": "0x1",
          "logIndex": "0x3",
          "removed": false
        },
        {
          "address": "0xbe1e70f11cab86bd0f662d6d701264855529f8e8",
          "topics": [
            "0x46c7dcbf3a00c84e08d7545c624c4660c0c6f64f421aa6f3f2f50ba7af392a17",
            "0x0000000000000000000000006f5202cc0b36287513f3197fdd515fe7d6befbc4",
            "0x0000000000000000000000000000000000000000000000000000000000000001",
            "0x0000000000000000000000000000000000000000000000000000000000000001"
          ],
          "data": "0x",
          "blockHash": "0x79b688c062dc735b28c10767ab414db2f294bae5211453ea60b20cabd54f2b66",
          "blockNumber": "0x569f5bb",
          "transactionHash": "0x10e7d6f7a8a419bf48fa56214c41ff2165f8ac6b304aa55301685b07a408fdfb",
          "transactionIndex": "0x1",
          "logIndex": "0x4",
          "removed": false
        },
        {
          "address": "0xbe1e70f11cab86bd0f662d6d701264855529f8e8",
          "topics": [
            "0x46c7dcbf3a00c84e08d7545c624c4660c0c6f64f421aa6f3f2f50ba7af392a17",
            "0x00000000000000000000000037fd9ca01307708e29812621991ea7df04e3e539",
            "0x0000000000000000000000000000000000000000000000000000000000000001",
            "0x0000000000000000000000000000000000000000000000000000000000000001"
          ],
          "data": "0x",
          "blockHash": "0x79b688c062dc735b28c10767ab414db2f294bae5211453ea60b20cabd54f2b66",
          "blockNumber": "0x569f5bb",
          "transactionHash": "0x10e7d6f7a8a419bf48fa56214c41ff2165f8ac6b304aa55301685b07a408fdfb",
          "transactionIndex": "0x1",
          "logIndex": "0x5",
          "removed": false
        },
        {
          "address": "0xbe1e70f11cab86bd0f662d6d701264855529f8e8",
          "topics": [
            "0x46c7dcbf3a00c84e08d7545c624c4660c0c6f64f421aa6f3f2f50ba7af392a17",
            "0x000000000000000000000000a9541826028bc7d4536ee4f016ea20086b89462e",
            "0x0000000000000000000000000000000000000000000000000000000000000001",
            "0x0000000000000000000000000000000000000000000000000000000000000001"
          ],
          "data": "0x",
          "blockHash": "0x79b688c062dc735b28c10767ab414db2f294bae5211453ea60b20cabd54f2b66",
          "blockNumber": "0x569f5bb",
          "transactionHash": "0x10e7d6f7a8a419bf48fa56214c41ff2165f8ac6b304aa55301685b07a408fdfb",
          "transactionIndex": "0x1",
          "logIndex": "0x6",
          "removed": false
        },
        {
          "address": "0xbe1e70f11cab86bd0f662d6d701264855529f8e8",
          "topics": [
            "0x46c7dcbf3a00c84e08d7545c624c4660c0c6f64f421aa6f3f2f50ba7af392a17",
            "0x0000000000000000000000000f0d9f12143ebca798e3873ce5350ee71acdc03b",
            "0x0000000000000000000000000000000000000000000000000000000000000001",
            "0x0000000000000000000000000000000000000000000000000000000000000001"
          ],
          "data": "0x",
          "blockHash": "0x79b688c062dc735b28c10767ab414db2f294bae5211453ea60b20cabd54f2b66",
          "blockNumber": "0x569f5bb",
          "transactionHash": "0x10e7d6f7a8a419bf48fa56214c41ff2165f8ac6b304aa55301685b07a408fdfb",
          "transactionIndex": "0x1",
          "logIndex": "0x7",
          "removed": false
        },
        {
          "address": "0xbe1e70f11cab86bd0f662d6d701264855529f8e8",
          "topics": [
            "0x46c7dcbf3a00c84e08d7545c624c4660c0c6f64f421aa6f3f2f50ba7af392a17",
            "0x000000000000000000000000bcaea2ae164bad93d7c4736099f8eed6a50d3cd5",
            "0x0000000000000000000000000000000000000000000000000000000000000001",
            "0x0000000000000000000000000000000000000000000000000000000000000001"
          ],
          "data": "0x",
          "blockHash": "0x79b688c062dc735b28c10767ab414db2f294bae5211453ea60b20cabd54f2b66",
          "blockNumber": "0x569f5bb",
          "transactionHash": "0x10e7d6f7a8a419bf48fa56214c41ff2165f8ac6b304aa55301685b07a408fdfb",
          "transactionIndex": "0x1",
          "logIndex": "0x8",
          "removed": false
        },
        {
          "address": "0xbe1e70f11cab86bd0f662d6d701264855529f8e8",
          "topics": [
            "0x46c7dcbf3a00c84e08d7545c624c4660c0c6f64f421aa6f3f2f50ba7af392a17",
            "0x0000000000000000000000003f4f6216b1f2bebf15dd11dfb7c87ee540ba371b",
            "0x0000000000000000000000000000000000000000000000000000000000000001",
            "0x0000000000000000000000000000000000000000000000000000000000000001"
          ],
          "data": "0x",
          "blockHash": "0x79b688c062dc735b28c10767ab414db2f294bae5211453ea60b20cabd54f2b66",
          "blockNumber": "0x569f5bb",
          "transactionHash": "0x10e7d6f7a8a419bf48fa56214c41ff2165f8ac6b304aa55301685b07a408fdfb",
          "transactionIndex": "0x1",
          "logIndex": "0x9",
          "removed": false
        },
        {
          "address": "0xbe1e70f11cab86bd0f662d6d701264855529f8e8",
          "topics": [
            "0x46c7dcbf3a00c84e08d7545c624c4660c0c6f64f421aa6f3f2f50ba7af392a17",
            "0x00000000000000000000000050c156c5dcd37da12523463194d337199adbb025",
            "0x0000000000000000000000000000000000000000000000000000000000000001",
            "0x0000000000000000000000000000000000000000000000000000000000000001"
          ],
          "data": "0x",
          "blockHash": "0x79b688c062dc735b28c10767ab414db2f294bae5211453ea60b20cabd54f2b66",
          "blockNumber": "0x569f5bb",
          "transactionHash": "0x10e7d6f7a8a419bf48fa56214c41ff2165f8ac6b304aa55301685b07a408fdfb",
          "transactionIndex": "0x1",
          "logIndex": "0xa",
          "removed": false
        },
        {
          "address": "0xbe1e70f11cab86bd0f662d6d701264855529f8e8",
          "topics": [
            "0x46c7dcbf3a00c84e08d7545c624c4660c0c6f64f421aa6f3f2f50ba7af392a17",
            "0x000000000000000000000000737ca64b1cd1cf69872ce9feb6b169524bb9cdc1",
            "0x0000000000000000000000000000000000000000000000000000000000000001",
            "0x0000000000000000000000000000000000000000000000000000000000000001"
          ],
          "data": "0x",
          "blockHash": "0x79b688c062dc735b28c10767ab414db2f294bae5211453ea60b20cabd54f2b66",
          "blockNumber": "0x569f5bb",
          "transactionHash": "0x10e7d6f7a8a419bf48fa56214c41ff2165f8ac6b304aa55301685b07a408fdfb",
          "transactionIndex": "0x1",
          "logIndex": "0xb",
          "removed": false
        },
        {
          "address": "0xbe1e70f11cab86bd0f662d6d701264855529f8e8",
          "topics": [
            "0x6627f156f083090f37b8b458301c9057e453e08953ee04a5738e3233443997ea",
            "0x0000000000000000000000000000000000000000000000000000000000000002",
            "0x000000000000000000000000328735d26e5ada93610f0006c32abe2278c46211",
            "0x0000000000000000000000000000000000000000000000000000000000000001"
          ],
          "data": "0x",
          "blockHash": "0x79b688c062dc735b28c10767ab414db2f294bae5211453ea60b20cabd54f2b66",
          "blockNumber": "0x569f5bb",
          "transactionHash": "0x10e7d6f7a8a419bf48fa56214c41ff2165f8ac6b304aa55301685b07a408fdfb",
          "transactionIndex": "0x1",
          "logIndex": "0xc",
          "removed": false
        }
      ],
      "logsBloom": "0x04000000000020002000000000000000000000100000000040000000000000000000000000000000000000004000000000010000000000000000000000040000000008000004000000000020020010000000004000c40000000000410000000000000080000000000000000000008200000000000000000000000000000200000002000000000000800000000000000000400000000000880000000400000008000000000020000000010100000000000000000000000000808000000020000000000000000000000000000000028004000000200000000100000200000040000000000200000000001000000244000000000020008000000000000000000002",
      "type": "0x2",
      "transactionHash": "0x10e7d6f7a8a419bf48fa56214c41ff2165f8ac6b304aa55301685b07a408fdfb",
      "transactionIndex": "0x1",
      "blockHash": "0x79b688c062dc735b28c10767ab414db2f294bae5211453ea60b20cabd54f2b66",
      "blockNumber": "0x569f5bb",
      "gasUsed": "0x718f7",
      "effectiveGasPrice": "0x5f5e100",
      "from": "0x328735d26e5ada93610f0006c32abe2278c46211",
      "to": "0xbe1e70f11cab86bd0f662d6d701264855529f8e8",
      "contractAddress": null,
      "gasUsedForL1": "0x1940",
      "l1BlockNumber": "0x69aaac"
    }
  ],
  "libraries": [],
  "pending": [],
  "returns": {},
  "timestamp": 1729631127,
  "chain": 421614,
  "commit": "22573e6"
}