{
  "transactions": [
    {
      "hash": "0x65ebe88cd16839e734f753bd1d86d2484641cf02f78e9efa921c475b469a5f1f",
      "transactionType": "CALL",
      "contractName": null,
      "contractAddress": "0x94fff4779b8cb2ef0f8ec56a299de77337ac6ad7",
      "function": "constitute(address[],(address,uint64)[])",
      "arguments": [
        "[0xfb87dB1576054C5C632dF4B87802E850F824B3f2, 0x2af29163AD35b0343dEe41e8497713DB8a7E718E, 0xf85e0De9A0A1d55B47D1f8Bbe96452fe97A29552, 0x7F74756788Dd81997Af7B2A4d291E973aD5Dfde0, 0xEDEb04270f7c23f80E3a4f6f6Be71Ec23dcDAc1C, 0xc3a6f9573f4Db4b60cbD9Ef66d67669eC9Ab55E2, 0xa87697369C1C707E57DfF642D8f7308b6050b39f, 0x49D0dDc72F33621E3956cD4Fc51E812427D1052e, 0x940b3009Cc6B5E847766d47b88bF0809D14caB3a, 0x81a54AdF57C6e74200E3d53C44BB2880D743C51E, 0x634519d3190c450660069F420eeb2B092d29D96a, 0x53ae4CCD9daC82b5D11911B456b3c71838Bf823D]",
        "[(0x328735d26e5Ada93610F0006c32abE2278c46211, 1)]"
      ],
      "transaction": {
        "from": "0x328735d26e5ada93610f0006c32abe2278c46211",
        "to": "0x94fff4779b8cb2ef0f8ec56a299de77337ac6ad7",
        "gas": "0x945dd",
        "value": "0x0",
        "input": "0xdd5e599a000000000000000000000000000000000000000000000000000000000000004000000000000000000000000000000000000000000000000000000000000001e0000000000000000000000000000000000000000000000000000000000000000c000000000000000000000000fb87db1576054c5c632df4b87802e850f824b3f20000000000000000000000002af29163ad35b0343dee41e8497713db8a7e718e000000000000000000000000f85e0de9a0a1d55b47d1f8bbe96452fe97a295520000000000000000000000007f74756788dd81997af7b2a4d291e973ad5dfde0000000000000000000000000edeb04270f7c23f80e3a4f6f6be71ec23dcdac1c000000000000000000000000c3a6f9573f4db4b60cbd9ef66d67669ec9ab55e2000000000000000000000000a87697369c1c707e57dff642d8f7308b6050b39f00000000000000000000000049d0ddc72f33621e3956cd4fc51e812427d1052e000000000000000000000000940b3009cc6b5e847766d47b88bf0809d14cab3a00000000000000000000000081a54adf57c6e74200e3d53c44bb2880d743c51e000000000000000000000000634519d3190c450660069f420eeb2b092d29d96a00000000000000000000000053ae4ccd9dac82b5d11911b456b3c71838bf823d0000000000000000000000000000000000000000000000000000000000000001000000000000000000000000328735d26e5ada93610f0006c32abe2278c462110000000000000000000000000000000000000000000000000000000000000001",
        "nonce": "0xd0",
        "chainId": "0x66eee"
      },
      "additionalContracts": [],
      "isFixedGasLimit": false
    }
  ],
  "receipts": [
    {
      "status": "0x1",
      "cumulativeGasUsed": "0x822ee",
      "logs": [
        {
          "address": "0x94fff4779b8cb2ef0f8ec56a299de77337ac6ad7",
          "topics": [
            "0x46c7dcbf3a00c84e08d7545c624c4660c0c6f64f421aa6f3f2f50ba7af392a17",
            "0x000000000000000000000000fb87db1576054c5c632df4b87802e850f824b3f2",
            "0x0000000000000000000000000000000000000000000000000000000000000001",
            "0x0000000000000000000000000000000000000000000000000000000000000001"
          ],
          "data": "0x",
          "blockHash": "0xc39df54f66d0ddac3a1f1b44371669825b7c674dd227e120a7ed09dcf2fe9931",
          "blockNumber": "0x569fa3d",
          "transactionHash": "0x65ebe88cd16839e734f753bd1d86d2484641cf02f78e9efa921c475b469a5f1f",
          "transactionIndex": "0x2",
          "logIndex": "0x1",
          "removed": false
        },
        {
          "address": "0x94fff4779b8cb2ef0f8ec56a299de77337ac6ad7",
          "topics": [
            "0x46c7dcbf3a00c84e08d7545c624c4660c0c6f64f421aa6f3f2f50ba7af392a17",
            "0x0000000000000000000000002af29163ad35b0343dee41e8497713db8a7e718e",
            "0x0000000000000000000000000000000000000000000000000000000000000001",
            "0x0000000000000000000000000000000000000000000000000000000000000001"
          ],
          "data": "0x",
          "blockHash": "0xc39df54f66d0ddac3a1f1b44371669825b7c674dd227e120a7ed09dcf2fe9931",
          "blockNumber": "0x569fa3d",
          "transactionHash": "0x65ebe88cd16839e734f753bd1d86d2484641cf02f78e9efa921c475b469a5f1f",
          "transactionIndex": "0x2",
          "logIndex": "0x2",
          "removed": false
        },
        {
          "address": "0x94fff4779b8cb2ef0f8ec56a299de77337ac6ad7",
          "topics": [
            "0x46c7dcbf3a00c84e08d7545c624c4660c0c6f64f421aa6f3f2f50ba7af392a17",
            "0x000000000000000000000000f85e0de9a0a1d55b47d1f8bbe96452fe97a29552",
            "0x0000000000000000000000000000000000000000000000000000000000000001",
            "0x0000000000000000000000000000000000000000000000000000000000000001"
          ],
          "data": "0x",
          "blockHash": "0xc39df54f66d0ddac3a1f1b44371669825b7c674dd227e120a7ed09dcf2fe9931",
          "blockNumber": "0x569fa3d",
          "transactionHash": "0x65ebe88cd16839e734f753bd1d86d2484641cf02f78e9efa921c475b469a5f1f",
          "transactionIndex": "0x2",
          "logIndex": "0x3",
          "removed": false
        },
        {
          "address": "0x94fff4779b8cb2ef0f8ec56a299de77337ac6ad7",
          "topics": [
            "0x46c7dcbf3a00c84e08d7545c624c4660c0c6f64f421aa6f3f2f50ba7af392a17",
            "0x0000000000000000000000007f74756788dd81997af7b2a4d291e973ad5dfde0",
            "0x0000000000000000000000000000000000000000000000000000000000000001",
            "0x0000000000000000000000000000000000000000000000000000000000000001"
          ],
          "data": "0x",
          "blockHash": "0xc39df54f66d0ddac3a1f1b44371669825b7c674dd227e120a7ed09dcf2fe9931",
          "blockNumber": "0x569fa3d",
          "transactionHash": "0x65ebe88cd16839e734f753bd1d86d2484641cf02f78e9efa921c475b469a5f1f",
          "transactionIndex": "0x2",
          "logIndex": "0x4",
          "removed": false
        },
        {
          "address": "0x94fff4779b8cb2ef0f8ec56a299de77337ac6ad7",
          "topics": [
            "0x46c7dcbf3a00c84e08d7545c624c4660c0c6f64f421aa6f3f2f50ba7af392a17",
            "0x000000000000000000000000edeb04270f7c23f80e3a4f6f6be71ec23dcdac1c",
            "0x0000000000000000000000000000000000000000000000000000000000000001",
            "0x0000000000000000000000000000000000000000000000000000000000000001"
          ],
          "data": "0x",
          "blockHash": "0xc39df54f66d0ddac3a1f1b44371669825b7c674dd227e120a7ed09dcf2fe9931",
          "blockNumber": "0x569fa3d",
          "transactionHash": "0x65ebe88cd16839e734f753bd1d86d2484641cf02f78e9efa921c475b469a5f1f",
          "transactionIndex": "0x2",
          "logIndex": "0x5",
          "removed": false
        },
        {
          "address": "0x94fff4779b8cb2ef0f8ec56a299de77337ac6ad7",
          "topics": [
            "0x46c7dcbf3a00c84e08d7545c624c4660c0c6f64f421aa6f3f2f50ba7af392a17",
            "0x000000000000000000000000c3a6f9573f4db4b60cbd9ef66d67669ec9ab55e2",
            "0x0000000000000000000000000000000000000000000000000000000000000001",
            "0x0000000000000000000000000000000000000000000000000000000000000001"
          ],
          "data": "0x",
          "blockHash": "0xc39df54f66d0ddac3a1f1b44371669825b7c674dd227e120a7ed09dcf2fe9931",
          "blockNumber": "0x569fa3d",
          "transactionHash": "0x65ebe88cd16839e734f753bd1d86d2484641cf02f78e9efa921c475b469a5f1f",
          "transactionIndex": "0x2",
          "logIndex": "0x6",
          "removed": false
        },
        {
          "address": "0x94fff4779b8cb2ef0f8ec56a299de77337ac6ad7",
          "topics": [
            "0x46c7dcbf3a00c84e08d7545c624c4660c0c6f64f421aa6f3f2f50ba7af392a17",
            "0x000000000000000000000000a87697369c1c707e57dff642d8f7308b6050b39f",
            "0x0000000000000000000000000000000000000000000000000000000000000001",
            "0x0000000000000000000000000000000000000000000000000000000000000001"
          ],
          "data": "0x",
          "blockHash": "0xc39df54f66d0ddac3a1f1b44371669825b7c674dd227e120a7ed09dcf2fe9931",
          "blockNumber": "0x569fa3d",
          "transactionHash": "0x65ebe88cd16839e734f753bd1d86d2484641cf02f78e9efa921c475b469a5f1f",
          "transactionIndex": "0x2",
          "logIndex": "0x7",
          "removed": false
        },
        {
          "address": "0x94fff4779b8cb2ef0f8ec56a299de77337ac6ad7",
          "topics": [
            "0x46c7dcbf3a00c84e08d7545c624c4660c0c6f64f421aa6f3f2f50ba7af392a17",
            "0x00000000000000000000000049d0ddc72f33621e3956cd4fc51e812427d1052e",
            "0x0000000000000000000000000000000000000000000000000000000000000001",
            "0x0000000000000000000000000000000000000000000000000000000000000001"
          ],
          "data": "0x",
          "blockHash": "0xc39df54f66d0ddac3a1f1b44371669825b7c674dd227e120a7ed09dcf2fe9931",
          "blockNumber": "0x569fa3d",
          "transactionHash": "0x65ebe88cd16839e734f753bd1d86d2484641cf02f78e9efa921c475b469a5f1f",
          "transactionIndex": "0x2",
          "logIndex": "0x8",
          "removed": false
        },
        {
          "address": "0x94fff4779b8cb2ef0f8ec56a299de77337ac6ad7",
          "topics": [
            "0x46c7dcbf3a00c84e08d7545c624c4660c0c6f64f421aa6f3f2f50ba7af392a17",
            "0x000000000000000000000000940b3009cc6b5e847766d47b88bf0809d14cab3a",
            "0x0000000000000000000000000000000000000000000000000000000000000001",
            "0x0000000000000000000000000000000000000000000000000000000000000001"
          ],
          "data": "0x",
          "blockHash": "0xc39df54f66d0ddac3a1f1b44371669825b7c674dd227e120a7ed09dcf2fe9931",
          "blockNumber": "0x569fa3d",
          "transactionHash": "0x65ebe88cd16839e734f753bd1d86d2484641cf02f78e9efa921c475b469a5f1f",
          "transactionIndex": "0x2",
          "logIndex": "0x9",
          "removed": false
        },
        {
          "address": "0x94fff4779b8cb2ef0f8ec56a299de77337ac6ad7",
          "topics": [
            "0x46c7dcbf3a00c84e08d7545c624c4660c0c6f64f421aa6f3f2f50ba7af392a17",
            "0x00000000000000000000000081a54adf57c6e74200e3d53c44bb2880d743c51e",
            "0x0000000000000000000000000000000000000000000000000000000000000001",
            "0x0000000000000000000000000000000000000000000000000000000000000001"
          ],
          "data": "0x",
          "blockHash": "0xc39df54f66d0ddac3a1f1b44371669825b7c674dd227e120a7ed09dcf2fe9931",
          "blockNumber": "0x569fa3d",
          "transactionHash": "0x65ebe88cd16839e734f753bd1d86d2484641cf02f78e9efa921c475b469a5f1f",
          "transactionIndex": "0x2",
          "logIndex": "0xa",
          "removed": false
        },
        {
          "address": "0x94fff4779b8cb2ef0f8ec56a299de77337ac6ad7",
          "topics": [
            "0x46c7dcbf3a00c84e08d7545c624c4660c0c6f64f421aa6f3f2f50ba7af392a17",
            "0x000000000000000000000000634519d3190c450660069f420eeb2b092d29d96a",
            "0x0000000000000000000000000000000000000000000000000000000000000001",
            "0x0000000000000000000000000000000000000000000000000000000000000001"
          ],
          "data": "0x",
          "blockHash": "0xc39df54f66d0ddac3a1f1b44371669825b7c674dd227e120a7ed09dcf2fe9931",
          "blockNumber": "0x569fa3d",
          "transactionHash": "0x65ebe88cd16839e734f753bd1d86d2484641cf02f78e9efa921c475b469a5f1f",
          "transactionIndex": "0x2",
          "logIndex": "0xb",
          "removed": false
        },
        {
          "address": "0x94fff4779b8cb2ef0f8ec56a299de77337ac6ad7",
          "topics": [
            "0x46c7dcbf3a00c84e08d7545c624c4660c0c6f64f421aa6f3f2f50ba7af392a17",
            "0x00000000000000000000000053ae4ccd9dac82b5d11911b456b3c71838bf823d",
            "0x0000000000000000000000000000000000000000000000000000000000000001",
            "0x0000000000000000000000000000000000000000000000000000000000000001"
          ],
          "data": "0x",
          "blockHash": "0xc39df54f66d0ddac3a1f1b44371669825b7c674dd227e120a7ed09dcf2fe9931",
          "blockNumber": "0x569fa3d",
          "transactionHash": "0x65ebe88cd16839e734f753bd1d86d2484641cf02f78e9efa921c475b469a5f1f",
          "transactionIndex": "0x2",
          "logIndex": "0xc",
          "removed": false
        },
        {
          "address": "0x94fff4779b8cb2ef0f8ec56a299de77337ac6ad7",
          "topics": [
            "0x6627f156f083090f37b8b458301c9057e453e08953ee04a5738e3233443997ea",
            "0x0000000000000000000000000000000000000000000000000000000000000001",
            "0x000000000000000000000000328735d26e5ada93610f0006c32abe2278c46211",
            "0x0000000000000000000000000000000000000000000000000000000000000001"
          ],
          "data": "0x",
          "blockHash": "0xc39df54f66d0ddac3a1f1b44371669825b7c674dd227e120a7ed09dcf2fe9931",
          "blockNumber": "0x569fa3d",
          "transactionHash": "0x65ebe88cd16839e734f753bd1d86d2484641cf02f78e9efa921c475b469a5f1f",
          "transactionIndex": "0x2",
          "logIndex": "0xd",
          "removed": false
        }
      ],
      "logsBloom": "0x000000000000400200001000000000400000101040000000080000000400000080400000000000a0000000000000000000010000000000000000002200040000400000000000000000000000200000000001004002840000000000000000000000000400000000000000000004000000000000000000000000000000000000008002000000000000000000000200000800000000000000000000000004010000000000000000000000000000000000000000000000000008000000000008000000000000000000100000000000028004000000000000000100000000000040000002080082080000200000000000204000000000000000000000040020000000",
      "type": "0x2",
      "transactionHash": "0x65ebe88cd16839e734f753bd1d86d2484641cf02f78e9efa921c475b469a5f1f",
      "transactionIndex": "0x2",
      "blockHash": "0xc39df54f66d0ddac3a1f1b44371669825b7c674dd227e120a7ed09dcf2fe9931",
      "blockNumber": "0x569fa3d",
      "gasUsed": "0x70ccd",
      "effectiveGasPrice": "0x5f5e100",
      "from": "0x328735d26e5ada93610f0006c32abe2278c46211",
      "to": "0x94fff4779b8cb2ef0f8ec56a299de77337ac6ad7",
      "contractAddress": null,
      "gasUsedForL1": "0xd16",
      "l1BlockNumber": "0x69aac2"
    }
  ],
  "libraries": [],
  "pending": [],
  "returns": {},
  "timestamp": 1729631418,
  "chain": 421614,
  "commit": "22573e6"
}