{
  "transactions": [
    {
      "hash": "0x92013bb452d6ca13c435736d4bd966fa1c596056bd19f7bfb4bbf269a2da6d47",
      "transactionType": "CALL",
      "contractName": null,
      "contractAddress": "0xe55dbf3b724fc6a590630c94f5f63c976880235a",
      "function": "constitute(address[],(address,uint64)[])",
      "arguments": [
        "[0x222132954f22E5fb097a5921b4A0e427cB75B218, 0x19A8EE0a026026e02186c1c8ab763e94037dAf14, 0xFF1fE9d55a314056F90dD6CA2DafC5c77473eDFf, 0xd2aBB3eb2E55a143c7CE4E7aC500701e5DA1fDE3, 0xb50d1ef36d391536fF3CC8B659EDd5E7CDe5aeD8, 0x95b3c9eB943f6f2f9A7428b712eEAC406c3D6763, 0x28488b3e7daD21f98d551db09fd4Eb02af0Af9eD, 0x8508D5b9bA7F255F70E8022A8aFbDe72083773f8, 0x84bb5992386442282964b65a1a6cb060B4924a75, 0x9179B96E052eDa5a2eE94774c630A74D052b4Fb8, 0xBc4995d96857C9cbaD3bcFe7B51cD1f5a56BA4cf, 0x4D871ede1C865aBC0acf658E6c290060b85cbFB8]",
        "[]"
      ],
      "transaction": {
        "from": "0x328735d26e5ada93610f0006c32abe2278c46211",
        "to": "0xe55dbf3b724fc6a590630c94f5f63c976880235a",
        "gas": "0x92a80",
        "value": "0x0",
        "input": "0xdd5e599a000000000000000000000000000000000000000000000000000000000000004000000000000000000000000000000000000000000000000000000000000001e0000000000000000000000000000000000000000000000000000000000000000c000000000000000000000000222132954f22e5fb097a5921b4a0e427cb75b21800000000000000000000000019a8ee0a026026e02186c1c8ab763e94037daf14000000000000000000000000ff1fe9d55a314056f90dd6ca2dafc5c77473edff000000000000000000000000d2abb3eb2e55a143c7ce4e7ac500701e5da1fde3000000000000000000000000b50d1ef36d391536ff3cc8b659edd5e7cde5aed800000000000000000000000095b3c9eb943f6f2f9a7428b712eeac406c3d676300000000000000000000000028488b3e7dad21f98d551db09fd4eb02af0af9ed0000000000000000000000008508d5b9ba7f255f70e8022a8afbde72083773f800000000000000000000000084bb5992386442282964b65a1a6cb060b4924a750000000000000000000000009179b96e052eda5a2ee94774c630a74d052b4fb8000000000000000000000000bc4995d96857c9cbad3bcfe7b51cd1f5a56ba4cf0000000000000000000000004d871ede1c865abc0acf658e6c290060b85cbfb80000000000000000000000000000000000000000000000000000000000000000",
        "nonce": "0x126",
        "chainId": "0xaa37dc"
      },
      "additionalContracts": [],
      "isFixedGasLimit": false
    }
  ],
  "receipts": [
    {
      "status": "0x1",
      "cumulativeGasUsed": "0x8487f",
      "logs": [
        {
          "address": "0xe55dbf3b724fc6a590630c94f5f63c976880235a",
          "topics": [
            "0x46c7dcbf3a00c84e08d7545c624c4660c0c6f64f421aa6f3f2f50ba7af392a17",
            "0x000000000000000000000000222132954f22e5fb097a5921b4a0e427cb75b218",
            "0x0000000000000000000000000000000000000000000000000000000000000001",
            "0x0000000000000000000000000000000000000000000000000000000000000001"
          ],
          "data": "0x",
          "blockHash": "0xf8e5de6090e116604b9d17fa28216d03042d0d2902040624914b88bc35842bd8",
          "blockNumber": "0x11f976d",
          "transactionHash": "0x92013bb452d6ca13c435736d4bd966fa1c596056bd19f7bfb4bbf269a2da6d47",
          "transactionIndex": "0x2",
          "logIndex": "0x2",
          "removed": false
        },
        {
          "address": "0xe55dbf3b724fc6a590630c94f5f63c976880235a",
          "topics": [
            "0x46c7dcbf3a00c84e08d7545c624c4660c0c6f64f421aa6f3f2f50ba7af392a17",
            "0x00000000000000000000000019a8ee0a026026e02186c1c8ab763e94037daf14",
            "0x0000000000000000000000000000000000000000000000000000000000000001",
            "0x0000000000000000000000000000000000000000000000000000000000000001"
          ],
          "data": "0x",
          "blockHash": "0xf8e5de6090e116604b9d17fa28216d03042d0d2902040624914b88bc35842bd8",
          "blockNumber": "0x11f976d",
          "transactionHash": "0x92013bb452d6ca13c435736d4bd966fa1c596056bd19f7bfb4bbf269a2da6d47",
          "transactionIndex": "0x2",
          "logIndex": "0x3",
          "removed": false
        },
        {
          "address": "0xe55dbf3b724fc6a590630c94f5f63c976880235a",
          "topics": [
            "0x46c7dcbf3a00c84e08d7545c624c4660c0c6f64f421aa6f3f2f50ba7af392a17",
            "0x000000000000000000000000ff1fe9d55a314056f90dd6ca2dafc5c77473edff",
            "0x0000000000000000000000000000000000000000000000000000000000000001",
            "0x0000000000000000000000000000000000000000000000000000000000000001"
          ],
          "data": "0x",
          "blockHash": "0xf8e5de6090e116604b9d17fa28216d03042d0d2902040624914b88bc35842bd8",
          "blockNumber": "0x11f976d",
          "transactionHash": "0x92013bb452d6ca13c435736d4bd966fa1c596056bd19f7bfb4bbf269a2da6d47",
          "transactionIndex": "0x2",
          "logIndex": "0x4",
          "removed": false
        },
        {
          "address": "0xe55dbf3b724fc6a590630c94f5f63c976880235a",
          "topics": [
            "0x46c7dcbf3a00c84e08d7545c624c4660c0c6f64f421aa6f3f2f50ba7af392a17",
            "0x000000000000000000000000d2abb3eb2e55a143c7ce4e7ac500701e5da1fde3",
            "0x0000000000000000000000000000000000000000000000000000000000000001",
            "0x0000000000000000000000000000000000000000000000000000000000000001"
          ],
          "data": "0x",
          "blockHash": "0xf8e5de6090e116604b9d17fa28216d03042d0d2902040624914b88bc35842bd8",
          "blockNumber": "0x11f976d",
          "transactionHash": "0x92013bb452d6ca13c435736d4bd966fa1c596056bd19f7bfb4bbf269a2da6d47",
          "transactionIndex": "0x2",
          "logIndex": "0x5",
          "removed": false
        },
        {
          "address": "0xe55dbf3b724fc6a590630c94f5f63c976880235a",
          "topics": [
            "0x46c7dcbf3a00c84e08d7545c624c4660c0c6f64f421aa6f3f2f50ba7af392a17",
            "0x000000000000000000000000b50d1ef36d391536ff3cc8b659edd5e7cde5aed8",
            "0x0000000000000000000000000000000000000000000000000000000000000001",
            "0x0000000000000000000000000000000000000000000000000000000000000001"
          ],
          "data": "0x",
          "blockHash": "0xf8e5de6090e116604b9d17fa28216d03042d0d2902040624914b88bc35842bd8",
          "blockNumber": "0x11f976d",
          "transactionHash": "0x92013bb452d6ca13c435736d4bd966fa1c596056bd19f7bfb4bbf269a2da6d47",
          "transactionIndex": "0x2",
          "logIndex": "0x6",
          "removed": false
        },
        {
          "address": "0xe55dbf3b724fc6a590630c94f5f63c976880235a",
          "topics": [
            "0x46c7dcbf3a00c84e08d7545c624c4660c0c6f64f421aa6f3f2f50ba7af392a17",
            "0x00000000000000000000000095b3c9eb943f6f2f9a7428b712eeac406c3d6763",
            "0x0000000000000000000000000000000000000000000000000000000000000001",
            "0x0000000000000000000000000000000000000000000000000000000000000001"
          ],
          "data": "0x",
          "blockHash": "0xf8e5de6090e116604b9d17fa28216d03042d0d2902040624914b88bc35842bd8",
          "blockNumber": "0x11f976d",
          "transactionHash": "0x92013bb452d6ca13c435736d4bd966fa1c596056bd19f7bfb4bbf269a2da6d47",
          "transactionIndex": "0x2",
          "logIndex": "0x7",
          "removed": false
        },
        {
          "address": "0xe55dbf3b724fc6a590630c94f5f63c976880235a",
          "topics": [
            "0x46c7dcbf3a00c84e08d7545c624c4660c0c6f64f421aa6f3f2f50ba7af392a17",
            "0x00000000000000000000000028488b3e7dad21f98d551db09fd4eb02af0af9ed",
            "0x0000000000000000000000000000000000000000000000000000000000000001",
            "0x0000000000000000000000000000000000000000000000000000000000000001"
          ],
          "data": "0x",
          "blockHash": "0xf8e5de6090e116604b9d17fa28216d03042d0d2902040624914b88bc35842bd8",
          "blockNumber": "0x11f976d",
          "transactionHash": "0x92013bb452d6ca13c435736d4bd966fa1c596056bd19f7bfb4bbf269a2da6d47",
          "transactionIndex": "0x2",
          "logIndex": "0x8",
          "removed": false
        },
        {
          "address": "0xe55dbf3b724fc6a590630c94f5f63c976880235a",
          "topics": [
            "0x46c7dcbf3a00c84e08d7545c624c4660c0c6f64f421aa6f3f2f50ba7af392a17",
            "0x0000000000000000000000008508d5b9ba7f255f70e8022a8afbde72083773f8",
            "0x0000000000000000000000000000000000000000000000000000000000000001",
            "0x0000000000000000000000000000000000000000000000000000000000000001"
          ],
          "data": "0x",
          "blockHash": "0xf8e5de6090e116604b9d17fa28216d03042d0d2902040624914b88bc35842bd8",
          "blockNumber": "0x11f976d",
          "transactionHash": "0x92013bb452d6ca13c435736d4bd966fa1c596056bd19f7bfb4bbf269a2da6d47",
          "transactionIndex": "0x2",
          "logIndex": "0x9",
          "removed": false
        },
        {
          "address": "0xe55dbf3b724fc6a590630c94f5f63c976880235a",
          "topics": [
            "0x46c7dcbf3a00c84e08d7545c624c4660c0c6f64f421aa6f3f2f50ba7af392a17",
            "0x00000000000000000000000084bb5992386442282964b65a1a6cb060b4924a75",
            "0x0000000000000000000000000000000000000000000000000000000000000001",
            "0x0000000000000000000000000000000000000000000000000000000000000001"
          ],
          "data": "0x",
          "blockHash": "0xf8e5de6090e116604b9d17fa28216d03042d0d2902040624914b88bc35842bd8",
          "blockNumber": "0x11f976d",
          "transactionHash": "0x92013bb452d6ca13c435736d4bd966fa1c596056bd19f7bfb4bbf269a2da6d47",
          "transactionIndex": "0x2",
          "logIndex": "0xa",
          "removed": false
        },
        {
          "address": "0xe55dbf3b724fc6a590630c94f5f63c976880235a",
          "topics": [
            "0x46c7dcbf3a00c84e08d7545c624c4660c0c6f64f421aa6f3f2f50ba7af392a17",
            "0x0000000000000000000000009179b96e052eda5a2ee94774c630a74d052b4fb8",
            "0x0000000000000000000000000000000000000000000000000000000000000001",
            "0x0000000000000000000000000000000000000000000000000000000000000001"
          ],
          "data": "0x",
          "blockHash": "0xf8e5de6090e116604b9d17fa28216d03042d0d2902040624914b88bc35842bd8",
          "blockNumber": "0x11f976d",
          "transactionHash": "0x92013bb452d6ca13c435736d4bd966fa1c596056bd19f7bfb4bbf269a2da6d47",
          "transactionIndex": "0x2",
          "logIndex": "0xb",
          "removed": false
        },
        {
          "address": "0xe55dbf3b724fc6a590630c94f5f63c976880235a",
          "topics": [
            "0x46c7dcbf3a00c84e08d7545c624c4660c0c6f64f421aa6f3f2f50ba7af392a17",
            "0x000000000000000000000000bc4995d96857c9cbad3bcfe7b51cd1f5a56ba4cf",
            "0x0000000000000000000000000000000000000000000000000000000000000001",
            "0x0000000000000000000000000000000000000000000000000000000000000001"
          ],
          "data": "0x",
          "blockHash": "0xf8e5de6090e116604b9d17fa28216d03042d0d2902040624914b88bc35842bd8",
          "blockNumber": "0x11f976d",
          "transactionHash": "0x92013bb452d6ca13c435736d4bd966fa1c596056bd19f7bfb4bbf269a2da6d47",
          "transactionIndex": "0x2",
          "logIndex": "0xc",
          "removed": false
        },
        {
          "address": "0xe55dbf3b724fc6a590630c94f5f63c976880235a",
          "topics": [
            "0x46c7dcbf3a00c84e08d7545c624c4660c0c6f64f421aa6f3f2f50ba7af392a17",
            "0x0000000000000000000000004d871ede1c865abc0acf658e6c290060b85cbfb8",
            "0x0000000000000000000000000000000000000000000000000000000000000001",
            "0x0000000000000000000000000000000000000000000000000000000000000001"
          ],
          "data": "0x",
          "blockHash": "0xf8e5de6090e116604b9d17fa28216d03042d0d2902040624914b88bc35842bd8",
          "blockNumber": "0x11f976d",
          "transactionHash": "0x92013bb452d6ca13c435736d4bd966fa1c596056bd19f7bfb4bbf269a2da6d47",
          "transactionIndex": "0x2",
          "logIndex": "0xd",
          "removed": false
        }
      ],
      "logsBloom": "0x00000000020000000000000000000000000000100000000040000000000000000080000000000000400008000008000000000000000008000000000000040000000000000000002000000000000400000000080000840000000000800000000000000000400900000010000000000000000000000000000000000400000200000800002020000000000009000008010000000000000000000001000000000000000000008000000000000040000000002000000000000000000000000000000000000000000000008000000008023000000000000000000020001000000040000000000000000000000000080000000002000000000000080020001000000000",
      "type": "0x2",
      "transactionHash": "0x92013bb452d6ca13c435736d4bd966fa1c596056bd19f7bfb4bbf269a2da6d47",
      "transactionIndex": "0x2",
      "blockHash": "0xf8e5de6090e116604b9d17fa28216d03042d0d2902040624914b88bc35842bd8",
      "blockNumber": "0x11f976d",
      "gasUsed": "0x64472",
      "effectiveGasPrice": "0xf6a4d",
      "from": "0x328735d26e5ada93610f0006c32abe2278c46211",
      "to": "0xe55dbf3b724fc6a590630c94f5f63c976880235a",
      "contractAddress": null,
      "l1BaseFeeScalar": "0x1db0",
      "l1BlobBaseFee": "0x1",
      "l1BlobBaseFeeScalar": "0xd2730",
      "l1Fee": "0x8803c684c6",
      "l1GasPrice": "0x344c57727",
      "l1GasUsed": "0x1563"
    }
  ],
  "libraries": [],
  "pending": [],
  "returns": {},
  "timestamp": 1729497740,
  "chain": 11155420,
  "commit": "dc2f8e6"
}